{
  "contractName": "DgaEvote",
  "abi": [
    {
      "inputs": [],
      "stateMutability": "nonpayable",
      "type": "constructor"
    },
    {
      "anonymous": false,
      "inputs": [
        {
          "indexed": true,
          "internalType": "string",
          "name": "_topicId",
          "type": "string"
        },
        {
          "indexed": false,
          "internalType": "string",
          "name": "topicId",
          "type": "string"
        },
        {
          "indexed": false,
          "internalType": "string",
          "name": "userId",
          "type": "string"
        },
        {
          "indexed": false,
          "internalType": "string",
          "name": "choice",
          "type": "string"
        }
      ],
      "name": "VoteCreated",
      "type": "event"
    },
    {
      "inputs": [],
      "name": "contractOwner",
      "outputs": [
        {
          "internalType": "address",
          "name": "",
          "type": "address"
        }
      ],
      "stateMutability": "view",
      "type": "function",
      "constant": true
    },
    {
      "inputs": [
        {
          "internalType": "string",
          "name": "",
          "type": "string"
        }
      ],
      "name": "votes",
      "outputs": [
        {
          "internalType": "string",
          "name": "voteId",
          "type": "string"
        },
        {
          "internalType": "string",
          "name": "topicId",
          "type": "string"
        },
        {
          "internalType": "string",
          "name": "userId",
          "type": "string"
        },
        {
          "internalType": "string",
          "name": "choice",
          "type": "string"
        }
      ],
      "stateMutability": "view",
      "type": "function",
      "constant": true
    },
    {
      "inputs": [
        {
          "internalType": "string",
          "name": "voteId",
          "type": "string"
        },
        {
          "internalType": "string",
          "name": "topicId",
          "type": "string"
        },
        {
          "internalType": "string",
          "name": "userId",
          "type": "string"
        },
        {
          "internalType": "string",
          "name": "choice",
          "type": "string"
        }
      ],
      "name": "addVoteData",
      "outputs": [],
      "stateMutability": "nonpayable",
      "type": "function"
    }
  ],
  "bytecode": "0x608060405234801561001057600080fd5b50336000806101000a81548173ffffffffffffffffffffffffffffffffffffffff021916908373ffffffffffffffffffffffffffffffffffffffff160217905550610cf1806100606000396000f3fe608060405234801561001057600080fd5b50600436106100415760003560e01c8063b99ef1fa14610046578063ba7931c014610079578063ce606ee014610095575b600080fd5b610060600480360381019061005b91906107a7565b6100b3565b6040516100709493929190610878565b60405180910390f35b610093600480360381019061008e91906108d9565b610319565b005b61009d610586565b6040516100aa91906109f1565b60405180910390f35b6001818051602081018201805184825260208301602085012081835280955050505050506000915090508060000180546100ec90610a3b565b80601f016020809104026020016040519081016040528092919081815260200182805461011890610a3b565b80156101655780601f1061013a57610100808354040283529160200191610165565b820191906000526020600020905b81548152906001019060200180831161014857829003601f168201915b50505050509080600101805461017a90610a3b565b80601f01602080910402602001604051908101604052809291908181526020018280546101a690610a3b565b80156101f35780601f106101c8576101008083540402835291602001916101f3565b820191906000526020600020905b8154815290600101906020018083116101d657829003601f168201915b50505050509080600201805461020890610a3b565b80601f016020809104026020016040519081016040528092919081815260200182805461023490610a3b565b80156102815780601f1061025657610100808354040283529160200191610281565b820191906000526020600020905b81548152906001019060200180831161026457829003601f168201915b50505050509080600301805461029690610a3b565b80601f01602080910402602001604051908101604052809291908181526020018280546102c290610a3b565b801561030f5780601f106102e45761010080835404028352916020019161030f565b820191906000526020600020905b8154815290600101906020018083116102f257829003601f168201915b5050505050905084565b60008054906101000a900473ffffffffffffffffffffffffffffffffffffffff1673ffffffffffffffffffffffffffffffffffffffff163373ffffffffffffffffffffffffffffffffffffffff16146103a7576040517f08c379a000000000000000000000000000000000000000000000000000000000815260040161039e90610ab8565b60405180910390fd5b60008451116103eb576040517f08c379a00000000000000000000000000000000000000000000000000000000081526004016103e290610b24565b60405180910390fd5b600083511161042f576040517f08c379a000000000000000000000000000000000000000000000000000000000815260040161042690610b90565b60405180910390fd5b6000825111610473576040517f08c379a000000000000000000000000000000000000000000000000000000000815260040161046a90610bfc565b60405180910390fd5b60006040518060800160405280868152602001858152602001848152602001838152509050806001866040516104a99190610c58565b908152602001604051809103902060008201518160000190805190602001906104d39291906105aa565b5060208201518160010190805190602001906104f09291906105aa565b50604082015181600201908051906020019061050d9291906105aa565b50606082015181600301908051906020019061052a9291906105aa565b509050508460405161053c9190610c58565b60405180910390207f804194cd92ba06e832bd7704d1c38016a75d72ddd2a09e13978a17823b593f4585858560405161057793929190610c6f565b60405180910390a25050505050565b60008054906101000a900473ffffffffffffffffffffffffffffffffffffffff1681565b8280546105b690610a3b565b90600052602060002090601f0160209004810192826105d8576000855561061f565b82601f106105f157805160ff191683800117855561061f565b8280016001018555821561061f579182015b8281111561061e578251825591602001919060010190610603565b5b50905061062c9190610630565b5090565b5b80821115610649576000816000905550600101610631565b5090565b6000604051905090565b600080fd5b600080fd5b600080fd5b600080fd5b6000601f19601f8301169050919050565b7f4e487b7100000000000000000000000000000000000000000000000000000000600052604160045260246000fd5b6106b48261066b565b810181811067ffffffffffffffff821117156106d3576106d261067c565b5b80604052505050565b60006106e661064d565b90506106f282826106ab565b919050565b600067ffffffffffffffff8211156107125761071161067c565b5b61071b8261066b565b9050602081019050919050565b82818337600083830152505050565b600061074a610745846106f7565b6106dc565b90508281526020810184848401111561076657610765610666565b5b610771848285610728565b509392505050565b600082601f83011261078e5761078d610661565b5b813561079e848260208601610737565b91505092915050565b6000602082840312156107bd576107bc610657565b5b600082013567ffffffffffffffff8111156107db576107da61065c565b5b6107e784828501610779565b91505092915050565b600081519050919050565b600082825260208201905092915050565b60005b8381101561082a57808201518184015260208101905061080f565b83811115610839576000848401525b50505050565b600061084a826107f0565b61085481856107fb565b935061086481856020860161080c565b61086d8161066b565b840191505092915050565b60006080820190508181036000830152610892818761083f565b905081810360208301526108a6818661083f565b905081810360408301526108ba818561083f565b905081810360608301526108ce818461083f565b905095945050505050565b600080600080608085870312156108f3576108f2610657565b5b600085013567ffffffffffffffff8111156109115761091061065c565b5b61091d87828801610779565b945050602085013567ffffffffffffffff81111561093e5761093d61065c565b5b61094a87828801610779565b935050604085013567ffffffffffffffff81111561096b5761096a61065c565b5b61097787828801610779565b925050606085013567ffffffffffffffff8111156109985761099761065c565b5b6109a487828801610779565b91505092959194509250565b600073ffffffffffffffffffffffffffffffffffffffff82169050919050565b60006109db826109b0565b9050919050565b6109eb816109d0565b82525050565b6000602082019050610a0660008301846109e2565b92915050565b7f4e487b7100000000000000000000000000000000000000000000000000000000600052602260045260246000fd5b60006002820490506001821680610a5357607f821691505b602082108103610a6657610a65610a0c565b5b50919050565b7f4f6e6c79204f776e65722063616e2063616c6c20746869732e00000000000000600082015250565b6000610aa26019836107fb565b9150610aad82610a6c565b602082019050919050565b60006020820190508181036000830152610ad181610a95565b9050919050565b7f766f74654964206e6f7420656d70747900000000000000000000000000000000600082015250565b6000610b0e6010836107fb565b9150610b1982610ad8565b602082019050919050565b60006020820190508181036000830152610b3d81610b01565b9050919050565b7f746f7069634964206e6f7420656d707479000000000000000000000000000000600082015250565b6000610b7a6011836107fb565b9150610b8582610b44565b602082019050919050565b60006020820190508181036000830152610ba981610b6d565b9050919050565b7f757365724964206e6f7420656d70747900000000000000000000000000000000600082015250565b6000610be66010836107fb565b9150610bf182610bb0565b602082019050919050565b60006020820190508181036000830152610c1581610bd9565b9050919050565b600081905092915050565b6000610c32826107f0565b610c3c8185610c1c565b9350610c4c81856020860161080c565b80840191505092915050565b6000610c648284610c27565b915081905092915050565b60006060820190508181036000830152610c89818661083f565b90508181036020830152610c9d818561083f565b90508181036040830152610cb1818461083f565b905094935050505056fea2646970667358221220a7b8e6686f40c5124d6bc53754910fd807f056dd4ac49d259161958afe7fcb8464736f6c634300080d0033",
  "immutableReferences": {},
  "source": "// SPDX-License-Identifier: GPL-3.0\n\npragma solidity >=0.7.0 <0.9.0;\n\nstruct VoteData {\n    string voteId;\n    string topicId;\n    string userId;\n    string choice;\n}\n\ncontract DgaEvote {\n    address public contractOwner;\n    mapping(string => VoteData) public votes;\n    event VoteCreated(string indexed _topicId, string topicId, string userId, string choice);\n    \n    constructor() {\n        contractOwner = msg.sender;\n    }\n\n    modifier onlyOwner {\n        require(msg.sender == contractOwner, \"Only Owner can call this.\");\n        _;\n    }\n\n    function addVoteData(string memory voteId, string memory topicId, string memory userId, string memory choice) public onlyOwner {\n        require(bytes(voteId).length > 0, \"voteId not empty\");\n        require(bytes(topicId).length > 0, \"topicId not empty\");\n        require(bytes(userId).length > 0, \"userId not empty\");\n\n        VoteData memory newVote = VoteData(voteId, topicId, userId, choice);\n        votes[voteId] = newVote;\n        emit VoteCreated(voteId, topicId, userId, choice);\n    }\n}",
  "sourcePath": "C:\\Users\\chan1\\Desktop\\Works\\dga-votechain\\blockchain\\contracts\\DgaEvote.sol",
  "compiler": {
    "name": "solc",
    "version": "0.8.13+commit.abaa5c0e.Emscripten.clang"
  },
  "schemaVersion": "3.4.13",
  "updatedAt": "2023-05-15T02:45:20.679Z",
  "networkType": "ethereum",
  "devdoc": {
    "kind": "dev",
    "methods": {},
    "version": 1
  },
  "userdoc": {
    "kind": "user",
    "methods": {},
    "version": 1
  }
}